{
  "contractName": "Land",
  "abi": [
    {
      "constant": true,
      "inputs": [
        {
          "internalType": "uint256",
          "name": "",
          "type": "uint256"
        }
      ],
      "name": "landArr",
      "outputs": [
        {
          "internalType": "string",
          "name": "plot_num",
          "type": "string"
        },
        {
          "internalType": "string",
          "name": "city",
          "type": "string"
        },
        {
          "internalType": "string",
          "name": "country",
          "type": "string"
        },
        {
          "internalType": "uint256",
          "name": "wintness_1_id",
          "type": "uint256"
        },
        {
          "internalType": "uint256",
          "name": "previous_owner",
          "type": "uint256"
        },
        {
          "internalType": "uint256",
          "name": "current_owner",
          "type": "uint256"
        },
        {
          "internalType": "uint256",
          "name": "index_num",
          "type": "uint256"
        }
      ],
      "payable": false,
      "stateMutability": "view",
      "type": "function"
    },
    {
      "constant": false,
      "inputs": [
        {
          "internalType": "string",
          "name": "_plot_num",
          "type": "string"
        },
        {
          "internalType": "string",
          "name": "_city",
          "type": "string"
        },
        {
          "internalType": "string",
          "name": "_country",
          "type": "string"
        },
        {
          "internalType": "uint256",
          "name": "_wintness_1_id",
          "type": "uint256"
        },
        {
          "internalType": "uint256",
          "name": "_previous_owner",
          "type": "uint256"
        },
        {
          "internalType": "uint256",
          "name": "_current_owner",
          "type": "uint256"
        }
      ],
      "name": "addLandRecode",
      "outputs": [
        {
          "internalType": "uint256",
          "name": "",
          "type": "uint256"
        }
      ],
      "payable": false,
      "stateMutability": "nonpayable",
      "type": "function"
    },
    {
      "constant": true,
      "inputs": [],
      "name": "getLength",
      "outputs": [
        {
          "internalType": "uint256",
          "name": "",
          "type": "uint256"
        }
      ],
      "payable": false,
      "stateMutability": "view",
      "type": "function"
    },
    {
      "constant": false,
      "inputs": [
        {
          "internalType": "uint256",
          "name": "_index",
          "type": "uint256"
        },
        {
          "internalType": "uint256",
          "name": "_current_owner",
          "type": "uint256"
        },
        {
          "internalType": "uint256",
          "name": "_new_owner",
          "type": "uint256"
        },
        {
          "internalType": "uint256",
          "name": "_wintness_1_id",
          "type": "uint256"
        }
      ],
      "name": "transferLandRecord",
      "outputs": [],
      "payable": false,
      "stateMutability": "nonpayable",
      "type": "function"
    }
  ],
  "bytecode": "0x608060405234801561001057600080fd5b5061091d806100206000396000f3fe608060405234801561001057600080fd5b506004361061004c5760003560e01c80631676018f146100515780635f82a3e41461026c578063be1c766b146102b8578063d6d46346146102d6575b600080fd5b610256600480360360c081101561006757600080fd5b810190808035906020019064010000000081111561008457600080fd5b82018360208201111561009657600080fd5b803590602001918460018302840111640100000000831117156100b857600080fd5b91908080601f016020809104026020016040519081016040528093929190818152602001838380828437600081840152601f19601f8201169050808301925050505050505091929192908035906020019064010000000081111561011b57600080fd5b82018360208201111561012d57600080fd5b8035906020019184600183028401116401000000008311171561014f57600080fd5b91908080601f016020809104026020016040519081016040528093929190818152602001838380828437600081840152601f19601f820116905080830192505050505050509192919290803590602001906401000000008111156101b257600080fd5b8201836020820111156101c457600080fd5b803590602001918460018302840111640100000000831117156101e657600080fd5b91908080601f016020809104026020016040519081016040528093929190818152602001838380828437600081840152601f19601f820116905080830192505050505050509192919290803590602001909291908035906020019092919080359060200190929190505050610471565b6040518082815260200191505060405180910390f35b6102b66004803603608081101561028257600080fd5b8101908080359060200190929190803590602001909291908035906020019092919080359060200190929190505050610569565b005b6102c0610620565b6040518082815260200191505060405180910390f35b610302600480360360208110156102ec57600080fd5b810190808035906020019092919050505061062c565b6040518080602001806020018060200188815260200187815260200186815260200185815260200184810384528b818151815260200191508051906020019080838360005b83811015610362578082015181840152602081019050610347565b50505050905090810190601f16801561038f5780820380516001836020036101000a031916815260200191505b5084810383528a818151815260200191508051906020019080838360005b838110156103c85780820151818401526020810190506103ad565b50505050905090810190601f1680156103f55780820380516001836020036101000a031916815260200191505b50848103825289818151815260200191508051906020019080838360005b8381101561042e578082015181840152602081019050610413565b50505050905090810190601f16801561045b5780820380516001836020036101000a031916815260200191505b509a505050505050505050505060405180910390f35b600080600080549050905060006040518060e001604052808a8152602001898152602001888152602001878152602001868152602001858152602001838152509080600181540180825580915050906001820390600052602060002090600702016000909192909190915060008201518160000190805190602001906104f8929190610843565b506020820151816001019080519060200190610515929190610843565b506040820151816002019080519060200190610532929190610843565b50606082015181600301556080820151816004015560a0820151816005015560c08201518160060155505050509695505050505050565b826000858154811061057757fe5b9060005260206000209060070201600501541461059357600080fd5b600084815481106105a057fe5b906000526020600020906007020160050154600085815481106105bf57fe5b90600052602060002090600702016004018190555081600085815481106105e257fe5b906000526020600020906007020160050181905550806000858154811061060557fe5b90600052602060002090600702016003018190555050505050565b60008080549050905090565b6000818154811061063957fe5b9060005260206000209060070201600091509050806000018054600181600116156101000203166002900480601f0160208091040260200160405190810160405280929190818152602001828054600181600116156101000203166002900480156106e55780601f106106ba576101008083540402835291602001916106e5565b820191906000526020600020905b8154815290600101906020018083116106c857829003601f168201915b505050505090806001018054600181600116156101000203166002900480601f0160208091040260200160405190810160405280929190818152602001828054600181600116156101000203166002900480156107835780601f1061075857610100808354040283529160200191610783565b820191906000526020600020905b81548152906001019060200180831161076657829003601f168201915b505050505090806002018054600181600116156101000203166002900480601f0160208091040260200160405190810160405280929190818152602001828054600181600116156101000203166002900480156108215780601f106107f657610100808354040283529160200191610821565b820191906000526020600020905b81548152906001019060200180831161080457829003601f168201915b5050505050908060030154908060040154908060050154908060060154905087565b828054600181600116156101000203166002900490600052602060002090601f016020900481019282601f1061088457805160ff19168380011785556108b2565b828001600101855582156108b2579182015b828111156108b1578251825591602001919060010190610896565b5b5090506108bf91906108c3565b5090565b6108e591905b808211156108e15760008160009055506001016108c9565b5090565b9056fea265627a7a72315820bf3c28959ee2b9575c7d1aff36e665bffa4f11d36f4adb286daf5ae4f3c695cc64736f6c63430005100032",
  "source": "pragma solidity >=0.4.22 <0.6.0;\r\n\r\ncontract Land {\r\n    struct LandStruct {\r\n        string plot_num;\r\n        string city;\r\n        string country;\r\n        uint wintness_1_id;\r\n        uint previous_owner;\r\n        uint current_owner;\r\n        uint index_num;\r\n    }\r\n\r\n    LandStruct[] public landArr;\r\n    function addLandRecode(\r\n        string memory _plot_num,\r\n        string memory _city,\r\n        string memory _country,\r\n        uint _wintness_1_id,\r\n        uint _previous_owner,\r\n        uint _current_owner\r\n    )public returns(uint)\r\n    {\r\n        uint index = landArr.length;\r\n        landArr.push(LandStruct({\r\n            plot_num: _plot_num,\r\n            city: _city,\r\n            country: _country,\r\n            wintness_1_id: _wintness_1_id,\r\n            previous_owner: _previous_owner,\r\n            current_owner: _current_owner,\r\n            index_num: index\r\n        }));\r\n    }\r\n    function getLength() public view returns(uint) {\r\n        return landArr.length;\r\n    }\r\n    function transferLandRecord(\r\n        uint _index,\r\n        uint _current_owner,\r\n        uint _new_owner,\r\n        uint _wintness_1_id\r\n        ) public {\r\n        require(landArr[_index].current_owner == _current_owner);\r\n        landArr[_index].previous_owner = landArr[_index].current_owner;\r\n        landArr[_index].current_owner = _new_owner;\r\n        landArr[_index].wintness_1_id = _wintness_1_id;\r\n    }\r\n}",
  "sourcePath": "C:/Users/AMIRS/Documents/GitHub/land_record_blockchain/contracts/Land.sol",
  "compiler": {
    "name": "solc",
    "version": "0.5.16+commit.9c3226ce.Emscripten.clang"
  },
  "schemaVersion": "3.0.21",
  "updatedAt": "2020-01-27T22:46:46.684Z",
  "networkType": "ethereum",
  "devdoc": {
    "methods": {}
  },
  "userdoc": {
    "methods": {}
  }
}