{
  "contractName": "Land",
  "abi": [
    {
      "constant": true,
      "inputs": [
        {
          "internalType": "uint256",
          "name": "",
          "type": "uint256"
        }
      ],
      "name": "landArr",
      "outputs": [
        {
          "internalType": "string",
          "name": "plot_num",
          "type": "string"
        },
        {
          "internalType": "string",
          "name": "street_num",
          "type": "string"
        },
        {
          "internalType": "string",
          "name": "city",
          "type": "string"
        },
        {
          "internalType": "string",
          "name": "province",
          "type": "string"
        },
        {
          "internalType": "string",
          "name": "country",
          "type": "string"
        },
        {
          "internalType": "uint256",
          "name": "wintness_1_id",
          "type": "uint256"
        },
        {
          "internalType": "uint256",
          "name": "wintness_2_id",
          "type": "uint256"
        },
        {
          "internalType": "uint256",
          "name": "previous_owner",
          "type": "uint256"
        },
        {
          "internalType": "uint256",
          "name": "index_num",
          "type": "uint256"
        }
      ],
      "payable": false,
      "stateMutability": "view",
      "type": "function"
    },
    {
      "constant": false,
      "inputs": [
        {
          "internalType": "string",
          "name": "_plot_num",
          "type": "string"
        },
        {
          "internalType": "string",
          "name": "_street_num",
          "type": "string"
        },
        {
          "internalType": "string",
          "name": "_city",
          "type": "string"
        },
        {
          "internalType": "string",
          "name": "_province",
          "type": "string"
        },
        {
          "internalType": "string",
          "name": "_country",
          "type": "string"
        },
        {
          "internalType": "uint256",
          "name": "_wintness_1_id",
          "type": "uint256"
        },
        {
          "internalType": "uint256",
          "name": "_wintness_2_id",
          "type": "uint256"
        },
        {
          "internalType": "uint256",
          "name": "_previous_owner",
          "type": "uint256"
        }
      ],
      "name": "addLandRecode",
      "outputs": [
        {
          "internalType": "uint256",
          "name": "",
          "type": "uint256"
        }
      ],
      "payable": false,
      "stateMutability": "nonpayable",
      "type": "function"
    },
    {
      "constant": true,
      "inputs": [],
      "name": "getLength",
      "outputs": [
        {
          "internalType": "uint256",
          "name": "",
          "type": "uint256"
        }
      ],
      "payable": false,
      "stateMutability": "view",
      "type": "function"
    }
  ],
  "bytecode": "0x608060405234801561001057600080fd5b50610b9c806100206000396000f3fe608060405234801561001057600080fd5b50600436106100415760003560e01c8063b72fd42e14610046578063be1c766b14610390578063d6d46346146103ae575b600080fd5b61037a600480360361010081101561005d57600080fd5b810190808035906020019064010000000081111561007a57600080fd5b82018360208201111561008c57600080fd5b803590602001918460018302840111640100000000831117156100ae57600080fd5b91908080601f016020809104026020016040519081016040528093929190818152602001838380828437600081840152601f19601f8201169050808301925050505050505091929192908035906020019064010000000081111561011157600080fd5b82018360208201111561012357600080fd5b8035906020019184600183028401116401000000008311171561014557600080fd5b91908080601f016020809104026020016040519081016040528093929190818152602001838380828437600081840152601f19601f820116905080830192505050505050509192919290803590602001906401000000008111156101a857600080fd5b8201836020820111156101ba57600080fd5b803590602001918460018302840111640100000000831117156101dc57600080fd5b91908080601f016020809104026020016040519081016040528093929190818152602001838380828437600081840152601f19601f8201169050808301925050505050505091929192908035906020019064010000000081111561023f57600080fd5b82018360208201111561025157600080fd5b8035906020019184600183028401116401000000008311171561027357600080fd5b91908080601f016020809104026020016040519081016040528093929190818152602001838380828437600081840152601f19601f820116905080830192505050505050509192919290803590602001906401000000008111156102d657600080fd5b8201836020820111156102e857600080fd5b8035906020019184600183028401116401000000008311171561030a57600080fd5b91908080601f016020809104026020016040519081016040528093929190818152602001838380828437600081840152601f19601f820116905080830192505050505050509192919290803590602001909291908035906020019092919080359060200190929190505050610621565b6040518082815260200191505060405180910390f35b610398610763565b6040518082815260200191505060405180910390f35b6103da600480360360208110156103c457600080fd5b810190808035906020019092919050505061076f565b6040518080602001806020018060200180602001806020018a815260200189815260200188815260200187815260200186810386528f818151815260200191508051906020019080838360005b83811015610442578082015181840152602081019050610427565b50505050905090810190601f16801561046f5780820380516001836020036101000a031916815260200191505b5086810385528e818151815260200191508051906020019080838360005b838110156104a857808201518184015260208101905061048d565b50505050905090810190601f1680156104d55780820380516001836020036101000a031916815260200191505b5086810384528d818151815260200191508051906020019080838360005b8381101561050e5780820151818401526020810190506104f3565b50505050905090810190601f16801561053b5780820380516001836020036101000a031916815260200191505b5086810383528c818151815260200191508051906020019080838360005b83811015610574578082015181840152602081019050610559565b50505050905090810190601f1680156105a15780820380516001836020036101000a031916815260200191505b5086810382528b818151815260200191508051906020019080838360005b838110156105da5780820151818401526020810190506105bf565b50505050905090810190601f1680156106075780820380516001836020036101000a031916815260200191505b509e50505050505050505050505050505060405180910390f35b600080600080549050905060006040518061012001604052808c81526020018b81526020018a8152602001898152602001888152602001878152602001868152602001858152602001838152509080600181540180825580915050906001820390600052602060002090600902016000909192909190915060008201518160000190805190602001906106b5929190610ac2565b5060208201518160010190805190602001906106d2929190610ac2565b5060408201518160020190805190602001906106ef929190610ac2565b50606082015181600301908051906020019061070c929190610ac2565b506080820151816004019080519060200190610729929190610ac2565b5060a0820151816005015560c0820151816006015560e0820151816007015561010082015181600801555050505098975050505050505050565b60008080549050905090565b6000818154811061077c57fe5b9060005260206000209060090201600091509050806000018054600181600116156101000203166002900480601f0160208091040260200160405190810160405280929190818152602001828054600181600116156101000203166002900480156108285780601f106107fd57610100808354040283529160200191610828565b820191906000526020600020905b81548152906001019060200180831161080b57829003601f168201915b505050505090806001018054600181600116156101000203166002900480601f0160208091040260200160405190810160405280929190818152602001828054600181600116156101000203166002900480156108c65780601f1061089b576101008083540402835291602001916108c6565b820191906000526020600020905b8154815290600101906020018083116108a957829003601f168201915b505050505090806002018054600181600116156101000203166002900480601f0160208091040260200160405190810160405280929190818152602001828054600181600116156101000203166002900480156109645780601f1061093957610100808354040283529160200191610964565b820191906000526020600020905b81548152906001019060200180831161094757829003601f168201915b505050505090806003018054600181600116156101000203166002900480601f016020809104026020016040519081016040528092919081815260200182805460018160011615610100020316600290048015610a025780601f106109d757610100808354040283529160200191610a02565b820191906000526020600020905b8154815290600101906020018083116109e557829003601f168201915b505050505090806004018054600181600116156101000203166002900480601f016020809104026020016040519081016040528092919081815260200182805460018160011615610100020316600290048015610aa05780601f10610a7557610100808354040283529160200191610aa0565b820191906000526020600020905b815481529060010190602001808311610a8357829003601f168201915b5050505050908060050154908060060154908060070154908060080154905089565b828054600181600116156101000203166002900490600052602060002090601f016020900481019282601f10610b0357805160ff1916838001178555610b31565b82800160010185558215610b31579182015b82811115610b30578251825591602001919060010190610b15565b5b509050610b3e9190610b42565b5090565b610b6491905b80821115610b60576000816000905550600101610b48565b5090565b9056fea265627a7a7231582072a6a35e36b91bc27e38af25e881299aa6d87ed1dc14f2be63d8c3688c46329864736f6c634300050c0032",
  "source": "pragma solidity >=0.4.22 <0.6.0;\n\ncontract Land {\n    struct LandStruct {\n        string plot_num;\n        string street_num;\n        string city;\n        string province;\n        string country;\n        uint wintness_1_id;\n        uint wintness_2_id;\n        uint previous_owner;\n        uint index_num;\n    }\n\n    LandStruct[] public landArr;\n    function addLandRecode(\n        string memory _plot_num,\n        string memory _street_num,\n        string memory _city,\n        string memory _province,\n        string memory _country,\n        uint _wintness_1_id,\n        uint _wintness_2_id,\n        uint _previous_owner\n    )public returns(uint)\n    {\n        uint index = landArr.length;\n        landArr.push(LandStruct({\n            plot_num: _plot_num,\n            street_num: _street_num,\n            city: _city,\n            province: _province,\n            country: _country,\n            wintness_1_id: _wintness_1_id,\n            wintness_2_id: _wintness_2_id,\n            previous_owner: _previous_owner,\n            index_num: index\n        }));\n    }\n    function getLength() public view returns(uint){\n        return landArr.length;\n    }\n}",
  "sourcePath": "/home/amir/Documents/Development_Work/Blockchain/land_record/contracts/Land.sol",
  "compiler": {
    "name": "solc",
    "version": "0.5.12+commit.7709ece9.Emscripten.clang"
  },
  "schemaVersion": "3.0.20",
  "updatedAt": "2020-01-16T22:45:00.324Z",
  "networkType": "ethereum",
  "devdoc": {
    "methods": {}
  },
  "userdoc": {
    "methods": {}
  }
}